:020000020000FC
:0200000006C038
:10000C0038C00FEF0DBF08E00EBF0FEF0AB90FE0BD
:10001C0007B941E0E8E6F0E040834FE1EBE6F0E0C1
:10002C00408300EE04B911272227FF245BD078947B
:10003C0001D0FECF0F939F93932F9CD09BB901E0DF
:10004C0008B98DD0942F96D0F0FC90689BB902E043
:10005C0008B985D0952F8ED09BB904E008B97FD014
:10006C00962F88D09BB908E008B979D09F910F9151
:10007C0008950F930FB70F938F939F93AF9303B183
:10008C0004FF04C081E0F8262DD00FC003B1087026
:10009C00083059F411D0813041F481E090E0180F10
:1000AC00291F20D055D00FE10BBBAF919F918F91A1
:1000BC000F910FBF0F9118950F937F938F939F9371
:1000CC0003B173E0992788270695981F7A95E1F775
:1000DC00923010F480E001C081E09F918F917F916C
:1000EC000F9108950F931F932F937F938F939F934B
:1000FC00F0FE07C0812F922F75E0180F291F7A95FB
:10010C00E1F7662755274427332708EE73E01017CD
:10011C00270720F0101B270B6395F7CF04E6101769
:10012C0070E0270720F0101B270B5395F7CF0AE040
:10013C00101770E0270720F0101B270B4395F7CF03
:10014C00312F9F918F917F912F911F910F91089536
:10015C00A2E3AF936FDFAF91AA95D9F708958F9370
:10016C007F9384E17FEF7A95F1F78A95D9F77F91A8
:10017C008F910895EF93FF930F92002405C03F06D3
:10018C005B4F666D7D077F6FEAE8F1E0E90FF01DCC
:0C019C000490902D0F90FF91EF910895BA
:00000001FF
