:020000020000FC
:0200000006C038
:10000C0038C00FEF0DBF08E00EBF0FEF0AB90FE0BD
:10001C0007B941E0E8E6F0E040834FE1EBE6F0E0C1
:10002C00408300EE04B911272227FF2460D0789476
:10003C0001D0FECF0F939F93932F98D09BB901E0E3
:10004C0008B98DD0942F92D0F0FC90689BB902E047
:10005C0008B985D0952F8AD09BB904E008B97FD018
:10006C00962F84D09BB908E008B979D09F910F9155
:10007C0008950F930FB70F938F939F93AF9303B183
:10008C0004FF04C081E0F82632D00FC003B1087021
:10009C00083059F411D0813041F481E090E0180F10
:1000AC00291F25D01DD00FE10BBBAF919F918F91D4
:1000BC000F910FBF0F9118950F937F939F9303B1DF
:1000CC0073E09927069508F493957A95D9F79230B1
:1000DC0010F480E001C081E09F917F910F91089511
:1000EC00A2E3AF93A7DFAF91AA95D9F708950F9329
:1000FC001F932F937F938F939F93112F222FF0FE9B
:10010C0007C0812F922F75E0180F291F7A95E1F700
:10011C00662755274427332708EE73E01017270767
:10012C0020F0101B270B6395F7CF04E6101770E037
:10013C00270720F0101B270B5395F7CF0AE0101759
:10014C0070E0270720F0101B270B4395F7CF312FBA
:10015C009F918F917F912F911F910F91089584E121
:10016C007FEF7A95F1F78A95D9F70895EF93FF937E
:10017C000F92002405C03F065B4F666D7D077F6FB5
:10018C00E2E8F1E0E90FF01D0490902D0F90FF9143
:04019C00EF91089542
:00000001FF
